:040000006F30E05A23
:1000040000000000000000001E220000202200006A
:1000140000000000AC3500000000000000000000FB
:10002400AC350000AC35000000000000000000000A
:10003400AC35000000000000AC35000000000000FA
:10004400AC350000AC350000AC350000AC35000028
:10005400AC350000AC350000AC350000AC35000018
:10006400AC350000AC350000AC350000AC35000008
:10007400AC350000AC350000AC350000AC350000F8
:10008400AC350000AC350000AC350000AC350000E8
:10009400AC350000AC350000AC350000AC350000D8
:1000A400AC350000AC350000AC350000AC350000C8
:1000B4002E33000066040000942B0000AC350000D1
:1000C400AC350000AC350000AC350000AC350000A8
:1000D400AC350000AC350000AC350000AC35000098
:1000E400AC350000AC350000AC350000AC35000088
:0C00F400AC350000AC350000AC3500005D
:10010000397101436EC619A0397141536AC866CA74
:1001100062CC5ECE19A0397101535AD056D252D456
:100120004ED64AD826DA22DC06DE330161408282CE
:1001300041114AC026C222C406C68282B24D410184
:10014000024D924C224CB24B4101024B924A224A40
:10015000B2494101024992442244B24041018280A5
:100160003D432A876373C3029377F700BDEFADE584
:10017000937606FF3D8ABA960CC34CC30CC74CC796
:100180004107E36BD7FE11E28280B306C3408A06C3
:100190009702000096966780A6002307B700A30683
:1001A000B7002306B700A305B7002305B700A304D3
:1001B000B7002304B700A303B7002303B700A302CB
:1001C000B7002302B700A301B7002301B700A300C3
:1001D000B7002300B700828093F5F50F9396850052
:1001E000D58D93960501D58D61B79396270097021B
:1001F000000096968682E78086FA9680C1171D8F4A
:100200003E96E374C3F8A5B7EFF29FF20111AA84FA
:100210002E840945854502CA02CC231E010002C670
:1002200002C8EF305025E082370400404C08130527
:100230000440E484231D0100231B0100EF309025BE
:100240000546854513050440EF30F02C9307D01286
:100250007C8685475C87680085473EC8EF30300B59
:10026000854513050440EF309029B7E700E00967A2
:1002700023A2E7100561F9BDEFF21FE99387418DD5
:10028000B823FC334111631CF7001306004093852B
:10029000418D1385C121EF30B04D410155B5138318
:1002A000418D0346030037050020370800201376F0
:1002B0002602014409479385C121A1481305050081
:1002C00013080807B307E3009C238DCB8946054E2E
:1002D000B38ED50083CE0E006393FE00014E8506DB
:1002E000E39816FF630C0E0004089306140026948E
:1002F00051C2C2979C23230CF4FE36840507E313F6
:1003000017FD41D437190020371B0020014A13097B
:10031000C947938A8189130B8B681C08D29783C7BE
:1003200087FFE54613F7F7FD1307F7FB1377F70F82
:1003300063FCE604138707FE9376F70F7D47637D22
:10034000D702639AE70683C71A00B5C303ACC18915
:10035000CA855A856286EF30B04123A2818B13068D
:1003600000205A9C81454A8523000C0023AE018859
:10037000C53B25A8AA97BDBF370700B01307378034
:100380003357D700058B45C783A6C189138716004D
:10039000CA969CA223AEE1884A972300070083C730
:1003A0001A0003C7018BD98F99E3EF20B019050A12
:1003B000E31544F7D9BD6D47639EE700EF20101C9D
:1003C0001306002081454A8523AE0188513B23A6B0
:1003D000018AF1BF1307F0076395E70283A7C1897C
:1003E00081C7FD1723AEF18883A7C1893387270111
:1003F0002300070083A6C18AE3FBD7FA23A6F18A6C
:100400007DB705470545638AE70009470545638DC4
:10041000E70071476396E7001545EF20300D41BFB7
:1004200075476396E7001545EF20D00649B7138559
:10043000D7FF1375F50F2D476365A700EF101075F3
:10044000BDB7138517FF1375F50FE362A7F6EF101D
:10045000F07C1306002081454A8523AE018823A63F
:10046000018AFD39A9B7411122C6370400408545EC
:1004700013050440EF30500B630705108545130545
:100480000440EF30F00B9386C1619022894763EE00
:10049000C700B70700209387071C98436343E00E0B
:1004A0007DE323AE01887D57F1A890328D45DC3283
:1004B0006313B6041307A0103387E702938781CE36
:1004C0008146BA9703C80700E305D8FC88273E8613
:1004D000014709A88345160205071377F70F85051D
:1004E000A300B6020506E317E5FE850693F6F60FB0
:1004F00093872704D1BFA545E31DB6F81305A010C7
:10050000B387A702938581CE03C366001387C161B9
:100510008146138581CE094E8D4E130FA010AE97E4
:1005200083C5270285052381B702E304D3F67C3314
:100530006374FE041C276391D7055C278145B3874C
:10054000E703AA9783C207006388B20283CF8700BC
:100550003E88014609A88348180205061376F60F5F
:100560008508A30018030508E397CFFE850593F5DA
:10057000F50F93872704C9BF850693F6F60F190771
:100580006DB77D1798C33244410173002030582164
:10059000A1466305D700FC256395D700A1471CA29F
:1005A00082809D466304D7006394D7009D47C5BFF2
:1005B0008D466304D7006394D7008D47CDB7A54619
:1005C0006304D7006394D700A547D1BFFD57C1BFCF
:1005D000EFF29FB39384C16141110144138B340046
:1005E000994B138C44009389418D13054006EF30DD
:1005F000300705041374F40F214533158500EF30DF
:1006000030060145EF00307E0149014A930C400657
:100610005A85EF10400219E5050A137AFA0F63E4D0
:100620004B05014905094209054513590901EF30F8
:100630003003E31F99FD9547E3F987FA594531A047
:100640009547E3F487FA130550044101D5BC95475B
:10065000E3FD87F813056004CDBF9547E3F787F8FE
:1006600013057004DDB7938541CD6285EF10002935
:1006700061F9C8200949894523812401EF10C03759
:1006800079F5154523812401EF30807DC82093063C
:10069000E10013060040CE85EF10202A5DFDCE85D7
:1006A000138541CD1386140003C95900CD35C820E8
:1006B000CA85EF10A03751D99547E3F887F21305A3
:1006C000B00F61B7EFF25FA4130AA010330A45031D
:1006D000938981CE2A8CAE8A814401441389418D4D
:1006E000894B338B49018347390003472900A2070F
:1006F000BA97635CF41AB3078900983363127703DF
:10070000DC231147637BF7002300EB00B30789006C
:100710009C233E9442044180F9B72300FB00FDB7BF
:100720009146E317D7FE6382E418D4330D476390F4
:10073000E616F823854663EDE612F83363EAEB121A
:10074000631DD70A93072004B387F402D297CE978C
:10075000B8A381460146A6855685EF10203EB30713
:1007600089009C2393081002130750083E949307B6
:100770002004B387F40203432900420441808146E8
:100780000145114E954E33881403D297CE97330707
:10079000EC023A983307890010336308C60B63767E
:1007A000640A0C232E94420441806318D609503306
:1007B0002C23034F4700220693F2F5007A96E205B8
:1007C0004206E185834F3700418263D305047823D5
:1007D000338FA700B305A800230FEF009827A105CA
:1007E0008605CE9505070505A3045F00A306FF0156
:1007F000B2A198A71375F50F71BFE31277F79307AE
:100800002004B387F402D297CE972381770191B762
:100810003387D700A3035702A305F7033307D80094
:10082000410706074E9712AB03C76702850693F68A
:10083000F60F05072383E702B1BFE31D16F5102766
:1008400078332206518FDAA3B1B78547639EF6004D
:1008500093072004B387F402D297CE97B823631589
:10086000D7007D572380E704850493F4F40FA5BDDA
:1008700093072004B387F4027D57D297CE97B8A38D
:10088000B30789009C233E9442044180F1BF930743
:100890002004B384F4029307A010330CFC02FD572C
:1008A000269C938481CEE294BCA001456FF05F89C1
:1008B00083C6418D95476395F6181387418D143390
:1008C0008547639FF6163423A547639BF61634339A
:1008D00099476397F616930620041308A01033086F
:1008E0000503138681CE011122CE26CC4ACA4EC8FA
:1008F00052C656C4B386D5025AC25EC09147014360
:10090000814E014F014E938881CE1144C296369696
:10091000835346000148930F000793040008930295
:1009200000092149C149130A0002854A63E077049E
:10093000A147631AF30E930720041307A010B3878F
:10094000F5023307E502BA97B385F80083C70504BB
:1009500081E785472380F5047244E2445249C24945
:10096000324AA24A124B824B05618280B306F700DD
:1009700094228507C20793FBC60013FB3600C18390
:1009800093F6060F638D8B02638B2B0763950B0227
:100990006393560263010802B386EE033693420363
:1009A0001353030163090E008346C60389E6230E31
:1009B0005603A30EC603DA97C207C18385BF638BB4
:1009C000F60363EBDF00E5FAB306F70003C80600A1
:1009D000611813381800C5B763899600E39D56FC6B
:1009E000B306F70083CE0600F9B7B306F70003CECF
:1009F0000600D1B7B306F70003CF06006DBF638CC6
:100A00003601E39A46FBE30808FAB306F70094229E
:100A1000A30FD6024DB7E30008FAB306F7009422FD
:100A2000230FD60249BF93072004B387F50293052D
:100A3000A0103305B502AA97C6972380070429BFE3
:100A40008280EFF2EFEB9304A010B3049502938938
:100A500081CE4111AA8A2EC6014B138A81CE930BF7
:100A60002004A69903C40900138C4400154D21C825
:100A700003C90900330989401379F90FB3067903D3
:100A8000B3879600D297DE239DC3E296B30DDA00BA
:100A9000324513071B00EE861386418DCA85137BF2
:100AA000F70FEF10A00401E9CA85568511357D14B2
:100AB0001374F40F6DBFE37D6DFD13048004228574
:100AC00041016FF0AFE71307A0103305E5029387EC
:100AD000418DB033BC232206938681CE3E9693850A
:100AE000418D814709431148254E954E36958548DD
:100AF00063C4C700014582803387F500034F0700B8
:100B00001433FA97C207C183639A6600582363F5CA
:100B1000E80023001501E9BF18A1D9BFE39A06FD3B
:100B20005833E317C7FD3387F5001433E38206FD1E
:100B3000E3D0C7FC034F0700FA97C207C183E394D1
:100B4000D6FF3423139F8601135F8F41E35D0FFCB3
:100B5000BD8A14B53433034F470054B5543378235A
:100B6000A20678AD1825FA9636A9050718A565BF1F
:100B7000EFF26FDA9387C161C8334111A9372A892F
:100B800055ED9387418DEC231384C161138A418D08
:100B900091C548201386418DEF00B060938741CD09
:100BA000EC27138941CD91C548201386418DEF0074
:100BB000505F8345F90091C548201386418DEF00B1
:100BC000505E8345090191C548201386418DEF0091
:100BD000505D954948201306E1009385418DEF1043
:100BE00020002A8929E503472A00914763EFE7029D
:100BF00078A081498544114A7C2063E1970448200C
:100C0000214693F5F40FEF00507B01CDFD148509CB
:100C10001545C20493F9F90FEF308024C180636D4C
:100C20003A018504C204C180C1BF7CA0D9B7FD19B7
:100C300093F9F90FE39009FA1309E00F4A8541018E
:100C40006FF0AFD0EFF22FCD9C214111B3D7A74069
:100C5000858B85C39387C161AA85AA84C823700048
:100C60001389C161EF0050702A8439E51C87858B98
:100C700081E71304E00F89A0034549004146A6859A
:100C8000EF0050712A840DE9A9490345490070001D
:100C9000A685EF00706D0DE51C8705041374F40F35
:100CA000858B81C7E31334FFE9B7A947E303F4FC5D
:100CB0001C865944858BD5FF228541016FF0EFC812
:100CC0002A84DDBFEFF22FC59C2141111304E00FF0
:100CD000B3D7A740858BD1C39387C161AA85AA8466
:100CE000C82311461389C161EF00306D2A8435E5B0
:100CF0002945EF30E016AD49034549007000A6854F
:100D0000EF00906631E91C8705041374F40FC18B62
:100D10009DEFE31334FF034549005146A685EF00DC
:100D200070670144AD49034549007000A685EF0096
:100D3000B0631DE11C8705041374F40FC18B95C3C8
:100D4000E31334FF1C86858B91C7554531A0A94715
:100D5000E313F4FC1305E00F2A84228541016FF0B0
:100D6000CFBEA947E308F4FEF1BFEFF26FBC2E84BB
:100D70002E86AA8503C50162EF00105F11E91C30C1
:100D800013F7270011E713F547003335A0000505D9
:100D90006FF04FBCEFF24FB79947B307F5021389D5
:100DA000C1614111AA892E8B328AA9441384C16181
:100DB000AD073E99DE8A938541CD4A85EF00103418
:100DC00011C9FD1493F4F40FFDF41305500441010F
:100DD0006FF00FB79944B38499022949A294CC24A7
:100DE000A834890593F5F50FEF0010413DE119494D
:100DF00033892903DC24154589072300FB00EF30E4
:100E00002006A944138B418D22990345B90093060E
:100E1000E10013060040DA85EF00303239E15286F6
:100E20009385418D138541CD03495B00EFF02FF68B
:100E30009947B389F902A9444E942834CA85EF0032
:100E4000F03E51D5FD1493F4F40FE5F8130590042A
:100E5000BDBF7D191379F90FE31309F81305600479
:100E6000BDB7FD1493F4F40FCDF085B7EFF24FA9A1
:100E7000130D2004338DA5039305A0103289368C01
:100E80008549094B8D4B3305B5026A95138D81CE8B
:100E90002A9D034AED0383441D04834AFD03D28D3A
:100EA00033844D411374F40F834C1D0463FABA016B
:100EB000338494413334800023018D046FF00FA8F4
:100EC000639F3D016286930530054A85EF30C00877
:100ED00033948D0005E1850D93FDFD0FD1B763902F
:100EE0006D036286930590034A85EF30E00665D571
:100EF0003394890033449401A3008D04E9BFE39C3B
:100F00007DFD628693057004C5B7EFF26FA2AA86D5
:100F10001308A0102E85B28513062004338806031B
:100F2000938781CE4111138781CE3386C5024296C5
:100F3000B29703C8C70303C617046300080483C736
:100F4000D703D0865C8689471306A0107C87930759
:100F50002004B386C6028548B387F5023388D700DC
:100F60003A9803460804631D16019306E1007000D9
:100F7000EF00703A41016FF0EF9D50868547E9B769
:100F80009305F00F0145E317B6FE93878703B697E5
:100F90000345780234877000B305F700EF00503145
:100FA000D1BFEFF26F96AA89AE84EFF0AFF12A8A33
:100FB00025E99387418DEC2391C51386418D2685C4
:100FC000EF00301EA6854E85AD3C938741CDEC27C2
:100FD000138941CD91C51386418D2685EF00701C84
:100FE0008345F90091C51386418D2685EF00701B5E
:100FF0008345090191C51386418D2685EF00701A3E
:10100000930AA010B38A5903138981CE0144930B2C
:101010002004054C330B590183470B006365F40032
:1010200052856FF0EF91B3077403D697CA97B82330
:1010300063188701A38007042286A6854E85F135B3
:1010400005041374F40FC9BFEFF28F8B03C5C161A0
:1010500001111384C161012B05472A8D6315E50A2F
:101060002A8908A0A3020400EFF08FD62A8D59E543
:1010700004300D476394E4064C2048301D372A8D18
:1010800035ED2380218B04A0142009476378D71CF9
:1010900018308D464430631DD7189309A010B389CA
:1010A0003403938781CE138C81CE3EC201494E9C7E
:1010B0009387A901E28C3EC603C70C006370E91A4E
:1010C000130720043307E9029247014AD94DB30AB6
:1010D0003701BE9AB247BA973EC47DA825476394AC
:1010E000E400793401E50D4718A079BF5947594DFF
:1010F000E30CE5F889471CA02A8D79B75947E30529
:10110000EDF80947D5B749F144307D46814513854F
:10111000C1612380018AEFF0AF841305A010B3846E
:10112000A402138581CE1306A01081452695EFF009
:101130002F8399BFB38B4A0183C62B0203C6EB01F1
:1011400063E9C604B3F6C602A24703C59B00B38594
:1011500047011386418D9247BE952381DB0293069A
:10116000E101EF00B0102A8D39E1EFF0EF9083C676
:101170002A000547639FE600B4871386418DCA8520
:101180002685ED3103C72A0409C74C204A862685E7
:10119000AD3B050A137AFA0F03C78A00E36CEAF83D
:1011A0005947630DED0A05091379F90F31B7630744
:1011B000B50B9306E002E31ED5FC83C59B004820D7
:1011C00093E50508EF00900883C61C00238D0B00F3
:1011D0002546850693F6F60FA380DC00E37BD6FA5E
:1011E0007D4681451385C161EFE09FF7EFF04FBE6B
:1011F0002A8D15E983C59B00482093E50508EF007B
:10120000F00485471306A0108145A3800C00628579
:101210001CA0A3020400EFE0BFF44C20268551334C
:101220002A8D0D4701C5E306BDF7094718A095B7FC
:10123000A5466315D7029309A010B3893403138A16
:1012400081CE138981CE4E9A03472A028346EA0152
:101250006379D700014B78206366EB1605616FE078
:10126000FFED3377D7022820938A418D2301EA02CC
:10127000152E2830912603459A009385A9019306DF
:10128000E1011386418DCA95EF00407E2A8D79F1E8
:1012900003C70A00014CD54CA30EE10099498D4AC1
:1012A000B70B0050054B7420E376DCFA930D1C005D
:1012B00013FAFD0F9305D1015285EFF0BF98D9477E
:1012C0002A8D6314F504330C3C038346D101B31D0E
:1012D000BB0193CDFDFFB3FDDD001306A0108145DA
:1012E000A30EB1013307840148271307A01033056B
:1012F000E5024A95EFE0DFE613057C0019468145DB
:101300002295EFE0FFE5528C79BF13054006EF20F0
:1013100030359305D1015285EFF0DF9A2A8D631E97
:101320009507B3073C038546A297F4B3A146B4B72B
:1013300023864701B30D3C039385418D5285353497
:10134000A29D2385AD0003C59D00A92C03C5AD005A
:10135000A5243C3099C783C71B0093F7B70FA38020
:10136000FB00B30D3C03628513868D0093859D00C1
:101370002296A295EFF01FA22A8DA29D21E103C71C
:101380008D006319570183C5BD0003C5CD00113918
:101390002A8D35F9A3835D01BDB78346D101B31D05
:1013A000BB0193CDFDFFB3FDDD00B3063C03A30EEF
:1013B000B101A296F432E39866F5ADBF8947A383E5
:1013C000FD0091B79947B304FB028D46A294F83013
:1013D000631DD70C9424639AE60C03CCC4009307D6
:1013E000A010014AB30BFC025EC2B30D790103C722
:1013F0000D00637CEA0A130720043307EA029247D0
:101400009386AB018149B30AF700B387E600CA9A15
:101410003EC4ADA8B3863A0103C72602F02E63642A
:10142000C7063377C70288342381E602A52AA82499
:1014300061223C3099C7370700501C3393F7B70F30
:101440001CB3A2479306E1011386418DB385370192
:10145000B3873A018837CA95EF0040612A8D31E1A0
:1014600083C62A0005476390E602B4871386418D40
:10147000D2856285EFF09F9F03C72A0409C7AC3469
:10148000528662855934850993F9F90F03C78A009A
:10149000E3E2E9F859476309ED00050A137AFA0F08
:1014A000B9B75947E311E5FE594D050B137BFB0F07
:1014B0005DB3370700501C2393F7F70B1CA31C33B5
:1014C00093F7B70F1CB37E3BC207C18393F7F7BFF7
:1014D000C207C1837EBB8280EFE29FC503A7418123
:1014E000B74795089387074009456300F702B7E7B8
:1014F000B8059387078005456309F700B777DC02D5
:10150000938707C06315F7000145EF208065854587
:101510000565EF2080726FE0FFC385476310F50417
:10152000B7070050130700F898A3A3800700A38112
:10153000070013078004D8B71387C16398CF1387B8
:10154000C167D8CFA38D0702238F0702130790F836
:1015500098A37D57F8A30D47B8A38280B707005022
:10156000194798A38280370700507C23858B85C359
:1015700085477CA354338147858A99CA854709C921
:1015800089476306F50018338547058B11C38947E2
:101590003E858280B7070050C8330581134515008A
:1015A00005898280370700503C331375F50793F7A0
:1015B0000708C98F3CB3828085476317F500EFE2C7
:1015C0003FB7C53D6FE01FB9B707005098231367B9
:1015D000070498A398331367470098B3FA3B13673F
:1015E0000740FABB8280EFE2BFB42A8401455D3F29
:1015F000C935854763EC8700370700501C3393E7F4
:1016000027001CB311E82D45EF2090053707005047
:101610001C3393F7D70F1CB30945EF207004B707AD
:101620000050F823058B11C7D833058B19C3054724
:10163000F8A36FE03FB2370700505C33858B85CB52
:10164000EFE21FAF1C33858B91E72A84A13708A0F6
:1016500011E19D37B7070050983301451367170014
:1016600098B3FA3B13674700FABB6FE0BFAE59452A
:101670008280EFE27FA9B7070050A38DB702416ACD
:101680002A8B3289238FB70293594500814437044E
:101690000050894B394CA94AA54C7D1A230C640390
:1016A00023037401130D803E7C20898B91EB7D1DFB
:1016B000420D0545135D0D01EF202077E3160DFE69
:1016C000230C04027C20898B81E71305E00F9DA881
:1016D0007C3093F70704B5EF7C3093F7F70F13F5E1
:1016E000F700630A85076314550563090906630655
:1016F00049017D19420913590901FD1493F4F40FAE
:101700005145EF2080727C20858B91CB1305800C96
:10171000EF20A0711C30858BA9C785477CA085046C
:1017200093F4F40FE39C54F71305000221A8638D92
:101730009901B5476385F9008547E398F9F869D1C0
:10174000136505026FE0DF9F9D8B0D47E399E7FE70
:1017500045BF0145C5BF1305E002EDB71305A00263
:10176000D5B75945C5B7EFE23F9AAA89B2841305A8
:1017700040062E89EF20606B99C023900400370447
:101780000050A147896A5EBC13860A718145130522
:10179000000DC535631005149147A30DF402230F06
:1017A000F4029387C167E223138BC1676306040EBB
:1017B0006304090E8387070063C20706CE8BC20944
:1017C00093D90901370A0050938A0A71130540061C
:1017D000EF20A065DE8763733401A287231EFA021F
:1017E00081470357CA036391E7108345EA0356868E
:1017F0004145413565E18347EA0393C74700230F1D
:10180000FA028357CA031D8C4204418091C4835756
:10181000CA039A20BA979EA055F8BDA8370A00506F
:10182000938A0A71138BC163FD1913054006EF20DB
:10183000C05F8345BA035686130500091D3D59E96B
:101840008347BA0393C74700A30DFA0203578A00E0
:10185000A2876376870083578A00C207C1831D8CE5
:101860004204418081C49A203E979AA00147931672
:101870000701C1826392D7063E9983578A00C20747
:10188000C18399C783578A00B3F7F90091E351FCEC
:10189000B7070050239E070213054006EF20E058CB
:1018A000B7070050DE3F13050009C207C18391E36B
:1018B00041450966130606719145653B01ED370701
:1018C00000505E3FC207C18391C71E27C207C18374
:1018D00091C35D456FE0DF86B306EB009022B3064F
:1018E000E900050790A261B7834609003307FB00B2
:1018F0008507C20714A30509C183E5B5EFE25F833D
:1019000013844183A14718401CA19387C16798C3E2
:101910005840AA844111D8C308211306E1002E893A
:10192000993509E9834779007A209CA03C8763F3C5
:10193000E7005D4541016FE0FF81EFE2CFFD1387D6
:10194000C182B289104358439387C167411190C344
:10195000D8C336862A8A2E8936C6313521E1B24669
:101960001387C18272238E225D4563E9C502034657
:101970003900834529009387C16722064D8EB285C1
:1019800063F3C900CE85104358438EA290C3D8C3D9
:101990009A223686CA85FAA35285F13341016FE057
:1019A000CFFAEFE24FF79387C18303AA070083A919
:1019B00047001384C1674111B28413E90530232025
:1019C00044011306E100A685AA8A232234012311CB
:1019D0002401513B19ED9C201306E1002320440112
:1019E00023223401A68556857C87231124017EA0FD
:1019F0009D3B41016FE06FF5EFE28FF31387418468
:101A0000144358439387C16794C3AEA3AE84D8C32D
:101A100001468145893B2A8419E52685EFF09FB868
:101A20001545EF20E04322856FE0CFF2EFE24FF063
:101A30001387C184144358439387C16794C3AEA3EB
:101A4000D8C30146814505336FE0CFF0EFE24FEE9A
:101A500013874182144358439387C167D8C3CEA3E9
:101A600094C30146814501336FE0CFEEEFE24FECC6
:101A70002E848C214111328913650509014636C631
:101A8000EFF03FBFAA84B24605E1B70700509227A6
:101A90009385C1634206418292A24A85EF20404D60
:101AA0001C2093C747001CA0268541016FE08FEAE8
:101AB000EFE20FE8AA8441112E841385C167B28535
:101AC000368636C6EF20C04AB246B70700500146F8
:101AD000D6BF0C2013E50401EFF0BFB909E51C20C7
:101AE00093C747001CA041016FE0CFE6EFE24FE44F
:101AF0001387418532881043584323AEC1669387CC
:101B0000C167D8C3CEA39A223686C285FAA3EFF066
:101B10009FC56FE02FE4EFE2AFE11387C185328804
:101B20001043584323AEC1669387C167D8C3CEA381
:101B30003686C285EFF03FC36FE0CFE1EFE24FDFC3
:101B40001387418603280700584323AE0167220606
:101B50009387C167D18ED8C3CEA3B6A30146814572
:101B6000EFF07FC06FE00FDFEFE28FDC1387C187FC
:101B7000B2861043584323AEC1669387C1674111B3
:101B8000D8C3CEA31306E100B685EFF0DFBD410157
:101B90006FE04FDCEFE2CFD91387C186144358437F
:101BA00023AED1669387C167D8C3B2A3CEA3014643
:101BB0008145EFF05FBB6FE0EFD9EFE26FD713879E
:101BC00041881443584323AED1669387C167D8C375
:101BD000B2A3CEA301468145EFF0FFB86FE08FD7E7
:101BE000EFE26FD3938741879843DC4323AEE166EE
:101BF0001384C167AA89AE8432895CC0EFF0BFB696
:101C000011E99C204A86A6852310F9004E857EA006
:101C1000EFF07FB56FE06FD3EFE28FD10111854513
:101C200037054000EF20200585452145EF20C00203
:101C3000F1473EC68567938707C0371501407C8210
:101C40004C008D47130505C03EC4EF10303CB7274C
:101C50000600938707A83EC8B707FFBF3764004058
:101C60003ECAB70700043ECC0C08916713050480F8
:101C7000FC86EF10B04D130504808545EF10905C95
:101C8000854513050480EF10B06005616FE08FCCCF
:101C9000EFE26FC837640040AA892E89930404805C
:101CA000B70502002685EF1010637DF91305048047
:101CB000854537040300B7640040EF10305A05042F
:101CC000138A0480A2855285EF10905F65DD13852D
:101CD000048001469305800737040700B76400407D
:101CE000EF10F05C13042408138A0480A285528547
:101CF000EF10105D65DD93F5F90F1385048037044F
:101D00000700B7640040EF10505A13044408938949
:101D10000480A2854E85EF10B05A65DDCA85138513
:101D2000048037040700B7640040EF101058130414
:101D3000440813890480A2854A85EF10705865DD38
:101D4000854513850480EF1010536FE00FC0EFE25C
:101D50008FBCB76400402A8A2E843289938904801C
:101D6000B70502004E85EF1010577DF913850480EA
:101D70008545B7040300B7690040EF10304E850475
:101D8000938A0980A6855685EF10905365DD1385EB
:101D900009800146D285B7090700B7640040EF10FB
:101DA00010519389290893840480CE852685EF10ED
:101DB000305165DDB7640040B7090700229993846C
:101DC000048093894908631B2401376500408545D9
:101DD00013050580EF10304A6FE02FB70C202685E1
:101DE000EF10B04CCE852685EF10904D65DD0504D3
:101DF000D9BFEFE2EFB311714C80814763E9D7009F
:101E00008A8513861600A13711616FE0AFB4B30560
:101E1000F6008C2118023E978507A300B7F093F7D0
:101E2000F70FE9BFEFE2CFB09384C16B1304000B4F
:101E30001309800BA2850145A13D81450145893DDE
:101E4000C1450145B1350504268693060008930572
:101E50000004130580071374F40F613F9384040892
:101E6000E31A24FD6FE00FAFEFE28FAC9305F00FA4
:101E700011E18145130600401385C16BEFE04FAEC1
:101E80006FE04FAD9307F00763EEA7029307F003EF
:101E900063EAB70283C7418999C31336160093D703
:101EA00035009E07AA979D8905471385C16BB31519
:101EB000B7003E95E20583070500E1856315E6005E
:101EC000DD8D0CA1828093C5F5FFFD8DDDBF93876D
:101ED00001898AA3AEA38280EFE20FA3982183D762
:101EE0000189BA971307F007634EF7061384018937
:101EF00098313E20AE84BA971307F0036344F70687
:101F00002A8C3289014B930905FE133A16009C3046
:101F10006369FB001E209820BA971EA062856FE0BF
:101F20002FA2B387F902D840814BDA978607BA9778
:101F300083DA07009C200A2063E4FB00050BC1BF85
:101F40002E205E95B3977A01DA954205C205139764
:101F500007014181C1814A866343070052861D37CC
:101F6000850BC9BF014C5DBFEFE28F9C2A84AE8414
:101F700032898307040081E73E856FE0AF9D3E858F
:101F80004A86A685913F83070400E317F5FE050402
:101F9000CDB7EFE26F979307F007BA8A1304F00703
:101FA00063E3A7002A8442049307F0074180328B41
:101FB00063F4C700130BF007420B9307F003135BA6
:101FC0000B01AE8463F4B7009304F003C2049307DB
:101FD000F003C180B68B63F4D700930BF003C20B00
:101FE00093DB0B01B3098B4063646401B309644163
:101FF000C20993D9094163F57405338A9B40420AAB
:10200000135A0A41FD5C63736401854C054C094910
:1020100063533A0533C92903639F090463F59B00A1
:10202000A687DE84BE8B228563738B005A851314CA
:1020300005014180C204C18463D79B026FE04F90C9
:10204000338A7441420A135A0A41854C636364011E
:10205000FD5C7D5C6DBF33492A0333092041420991
:102060001359094155BFC204C180A68556862285F1
:10207000113D8504C1B7330D3041631B0A02DE8573
:1020800063F37401A68593940501C18063758B0089
:10209000A2875A843E8B42044184E3418BFA420476
:1020A000418022855686A685F13B0504EDB73E8921
:1020B0005686A6852285EFF0FFDC63146401E38F6A
:1020C00074F7CA8763592D01B30749416694C20763
:1020D0004204C1874180E35C49FDCE97E294C20788
:1020E000C204C187C180E1B7EFE28F84EFF0DFB2B5
:1020F00013054006EF10D0569305E00A0145EFF0B6
:102100003FB9930500020145EFF09FB8C145014575
:10211000EFF01FB89305000B0145EFF07FB7930573
:10212000800C0145EFF0DFB681450145EFF05FB669
:10213000C1450145EFF0DFB5930500040145EFF01F
:102140003FB5930510080145EFF09FB49305F00FDC
:102150000145EFF0FFB39305100A0145EFF05FB3BF
:102160009305600A0145EFF0BFB29305800A01456F
:10217000EFF01FB29305F0030145EFF07FB1930537
:10218000400A0145EFF0DFB09305300D0145EFF057
:102190003FB081450145EFF0BFAF9305500D0145BC
:1021A000EFF01FAF9305000F0145EFF07FAE9305F1
:1021B000900D0145EFF0DFAD930520020145EFF0F2
:1021C0003FAD9305A00D0145EFF09FACC94501451A
:1021D000EFF01FAC9305B00D0145EFF07FAB930519
:1021E00000020145EFF0DFAA9305D0080145EFF0AA
:1021F0003FAAD1450145EFF0BFA99305F00A01457B
:10220000EFF01FA90145EFF03FC6EFF0BFC1938784
:102210000189054723A00700D8B36FD0BFF301A001
:1022200001A0EFD2FFF0411185451145EF10D022FA
:1022300085452145EF105022371401408D44414916
:1022400089474C00130504804AC67C8226C4EF10DF
:10225000E05B8567938707204C00130504C04AC6DE
:102260007C8226C4EF10805A91473EC64C00996785
:10227000130504C07C8226C4EF10405941016FD081
:102280007FEDEFD2FFEAEF10C03B13051003EF1014
:10229000C03D37C50008EF108041938781899306C0
:1022A000B0FAB4B383C5918983C7818937C5000863
:1022B000A205DD8D83C7A18937140020B7C40008AB
:1022C000C207CD8F83C5B189E205DD8DEF10E041F6
:1022D0008345D4678347C46713854400A205DD8D19
:1022E0008347E467C207CD8F8345F4671304C4674F
:1022F000E205DD8DEF10603F4C305C2013858400DB
:10230000A205DD8D7C20C207CD8F6C30E205DD8D0E
:10231000EF10A03D0C341C241385C400A205DD8DF4
:102320003C24C207CD8F2C34E205DD8DEF10E03B5D
:10233000EF10C0326FD01FE2EFD29FDF37C7000827
:102340002C331306B00A938781896388C50213076B
:10235000B0FAB8B35147A3800700238C0188B8A313
:102360000D37B7C500083715002031469105130514
:10237000C567EF10F03F6FD0FFDD103390B310232F
:10238000238CC18803072700B8A3E1BFEFD25FDA2F
:102390008D4763EBA704B705040093858506B7173F
:1023A00000209387C767AA953E9518219307D00C04
:1023B000A605B71400206314F70403A4C51F1385F2
:1023C000C447228623AE8188EF10903A1389C44710
:1023D00083C791894A942300040089E723A6018AD0
:1023E000EF0050166FD01FD79D47B705040063E577
:1023F000A7009385C50665B7938505074DB7B775E3
:102400000000938545BB1385C447EF10F057138533
:10241000C447EF10705823AEA188E9B7EFD2BFCF01
:102420002A8437150040854713010180854513052F
:1024300005802384F18AEF10900CB7E700E0116764
:1024400023A2E7108D47B7D9000863F987009D479D
:10245000B7E9000863F48700B7F900080566CE8580
:10246000130606800A85EF10B030EF10801D1305AB
:102470001003EF10801F4E85EF1060230D47B71536
:102480000020636A870603AAC189931494005286C8
:10249000330591009385C547EF10902D856793878D
:1024A00007808A97BE940566130606808A8523AE48
:1024B000449F4E85EF10A028EF10401AB717002058
:1024C0009387C7673E949307D0FC1CA0EFF07FDB97
:1024D00037150040814513050580EF105002B7E71E
:1024E00000E0116723A2E7182384018A1301017F0A
:1024F00041016FD09FC503AAC1899D479304C4FFC2
:1025000063F48700930484FFA60451B7EFD25FC23F
:10251000A9452945EFF0BF9B37040020377500001F
:1025200005469305441C130545B9EFF0FFA3F94593
:102530002945EFF0DF993775000005469305441CE7
:10254000130585B9EFF05FA2930520035145EFF025
:102550001F983775000005469385C180130545BA5D
:10256000EFF09FA0EFF01F8C6FD0DFBEEFD2BFBAAD
:1025700079710145EFF05F8F81450145EFF03F959F
:102580009387818903862700B7750000938505B678
:102590006808EF10103B05469385C1806808EFF08E
:1025A000BF9C83C781899384818999CF8145130515
:1025B0001007EFF0DF913775000005469385C18065
:1025C000130585B6EFF05F9A81451305A002EFF081
:1025D0001F9003A6C18AB77500009385C5B6680829
:1025E000EF10303605469385C1806808EFF0DF971D
:1025F00081451305D004EFF09F8D83C7018B0547FC
:10260000B77500006398E71098306315F71003A6BC
:10261000418A938545B76808EF10B0320546938527
:10262000C1806808EFF05F9483C7018A99CF814524
:1026300013058007EFF0BF893775000005469385C5
:10264000C1801305C5B7EFF03F929C303779000089
:10265000B714002005476380072093060004130683
:102660000004A94513050004EFF0BF920547930647
:1026700000041306F003A9451305F003EFF07F9162
:102680000547A94613060008A9450145EFF07F90CC
:10269000AD450145EFF0BF8301469385C180130529
:1026A00009B8EFF07F8C1385C447EF10F02E254951
:1026B0006365A906D9450145EFF07F8105469385FD
:1026C000C1801385C447EFF03F8AAD451305000470
:1026D000EFF0EFFF3775000001469385C1801305C9
:1026E00085B8EFF07F88B714002013858468EF1059
:1026F000B02AA547268A63EBA70ED9451305000427
:10270000EFF0EFFC05469385C18013858468EFF0F8
:10271000BF852DA203A6C189EDBD9307300263E2F8
:10272000A7061389C4478149254AA94A4A85EF105B
:10273000B0266360AA04CA856808EF10F024B38548
:102740005903014585092509D905C205C181EFF065
:102750000FF805469385C1806808EFF0FF80138568
:10276000C447EF107023335545030505E3E0A9FC8A
:10277000A9BF2546CA856808EF10807FA302010221
:102780007DBF33552503D949254A1309D5FF138544
:10279000C447EF107020335545030505E377A9F2D0
:1027A000B30549039387C447BE952E852EC6EF1007
:1027B000B01EB2456365AA026808EF10F01CCE8512
:1027C0000145EFF0CFF0A90905469385C18068085F
:1027D000C209EFF06FF9050993D909014DBF2546EC
:1027E0006808EF10E078A3020102D1BF93848468E7
:1027F0000149A549A94A2685EF10101A63E5A904E5
:10280000A6856808EF105018B30559031305000496
:102810000509A504D905C205C181EFF04FEB0546B6
:102820009385C1806808EFF02FF413058A68EF10D4
:10283000B016335535030505E36FA9FAEFF08FDEC7
:1028400045616FD09F902546A6856808EF104072BD
:10285000A302010255BFA94613060008A945014578
:10286000EFF02FF3AD450145EFF06FE6014693859C
:10287000C180130509B8EFF02FEF1385C447EF109F
:10288000B0114949636CA900D9450145EFF02FE427
:1028900005469385C1801385C44795BD9307800481
:1028A00063E2A7061389C4478149494AA94A4A8570
:1028B000EF10900E6360AA04CA856808EF10D00C70
:1028C000B3855903014585094909D905C205C18167
:1028D000EFF0EFDF05469385C1806808EFF0CFE8A1
:1028E0001385C447EF10500B335545030505E3E04E
:1028F000A9FCA9B74946CA856808EF106067230795
:1029000001027DBF33552503D949494A1309D5FF33
:102910001385C447EF105008335545030505E37F81
:10292000A9F0B30549039387C447BE952E852EC6EB
:10293000EF109006B2456365AA026808EF10D00454
:10294000CE850145EFF0AFD8A90905469385C18032
:102950006808C209EFF04FE1050993D909014DBF9D
:1029600049466808EF10C06023070102D1BFEFD2CB
:102970002FFC0111AA842E841145854502CA02CC80
:10298000231E010002C602C8EF10E02EE0823714B9
:1029900000404C0813050480E484231D0100231B20
:1029A0000100EF10202F0546854513050480EF1028
:1029B00080369307E0327C8689475C8768008547CC
:1029C0003EC8EF10C01405616FD0CFF8EFD2CFF33F
:1029D0000545EF106013EF009034EF10A0427165D1
:1029E00013050520EF10204B83A5418137750000AA
:1029F000130545BCEF10E062EF001044AA8537755F
:102A00000000130545BDEF10C061377500001305C8
:102A100045BEEF10407283A741819305C0038564D2
:102A2000B385F502B7470F00938707241385F4F9A0
:102A3000B3D5F502FD15C205C181792A83A541816F
:102A40009307803E2545B3D5F502371401401304A2
:102A500004C0FD15C205C181EFD00FFB3775000022
:102A60001305C5C0EF10206DEFF0AFFB9305703E6E
:102A70001385F4F9EFF0BFEFEFF00FE7EFE0DFA51C
:102A80000545EFE09FA97D4681451385C161EFD0E3
:102A90002FED370500201306205381451305856A65
:102AA000EFD00FECEFF05F89EFF05FA61305C05D8C
:102AB000EF10003B938B818989652285EF0030649C
:102AC0001389118B91652300A9002285EF003063E3
:102AD000A389A18AEFE04FD7EFF05FA90347090070
:102AE0008547138C118B9389318B138A218B631D3E
:102AF000F70083470A0089EB03C781898547998FCF
:102B0000238CF188EFF0EFF703C70900854713899D
:102B1000418B6316F70483470900B1E303C71B0029
:102B20008547998FA380FB00912C37150020130651
:102B3000002081451305C54723AE0188EFD04FE241
:102B4000371500201306002081451305856823A250
:102B5000018AEFD0EFE023A6018AEFF08FF283C75E
:102B6000018A054691E3014685652285EF00705C88
:102B700083C7818999E70146930500202285EF00EC
:102B8000505B83470C002300FA0083C70900230031
:102B9000F9001DB7411122C63714004085451305C1
:102BA0000480EF1060180DC5130504808545EF10F3
:102BB0002019371401408565130504C0EF00D05576
:102BC000014611E105468565130504C0EF00705606
:102BD0003244410173002030EFD28FD501112E8491
:102BE000AA848545054502CA02CC231E010002C6FF
:102BF00002C8EF1040084C0837050040E484E0822A
:102C0000231D0100231B0100EF10C0080546854568
:102C100037050040EF1020109307C0127C868947CB
:102C20005C87680085473EC8EF00706E05616FD015
:102C30006FD2EFD2EFCF03C7018B41112A89AE8447
:102C40003E8419CBB7E700E0056723A2E71881456A
:102C500037050040EF10A00A4C0037050040231351
:102C600001002315010023160100231421016482B1
:102C7000EF10400283C7018B99CB85453705004093
:102C8000EF10E007B7E700E0056723A2E710410176
:102C90006FD04FCCEFD2CFC9138781893823938768
:102CA00081893A956205618513073006634EA70254
:102CB000A8A303A74181838727009305C003B38599
:102CC000E50231671307073505651305F5F9B38785
:102CD000E702B3D5F502FD15C205C181EFF07FF51E
:102CE000EFF02FDA6FD00FC7B8A3E1B7EFD24FC420
:102CF000138781893823938781893305A74062052B
:102D00006185635EA002A8A303A741818387270092
:102D10009305C003B385E5023167130707350565E1
:102D20001305F5F9B387E702B3D5F502FD15C20522
:102D3000C181EFF01FF0EFF0CFD46FD0AFC10547E6
:102D4000B8A3D9B783C7018B8DEBEFD26FBE854790
:102D50002388F18A238BF18883C7918999C323A69D
:102D6000018A854537050040EF007079B7E700E03C
:102D7000056723A2E7106FD0EFBD828003C7018BE8
:102D800021C3EFD2EFBA05672388018AB7E700E0D5
:102D900023A2E718814537050040EF00507637142D
:102DA00001401305048001468945EF009038014633
:102DB00093050020130504C0EF00B0376FD08FB922
:102DC00082809306F5F93727002013F6F60FE547C2
:102DD0001307878863EBC70693971600B706002092
:102DE0009386060EBE9603C30600814701481D4E1A
:102DF000854813861700634968003E972300070043
:102E0000850723AEF18A82808832B30E0E41938506
:102E100027003355D541058915C1BA952380150181
:102E20003A96230016013306F70023001601A3018A
:102E30000600938547000508AE8765BFBA972380D3
:102E400017013A9623000600FDB79306F5FB13F62B
:102E5000F60F63E4C70693971600B7060020938623
:102E6000060EBE9603C30600814701481D4E8548E5
:102E700013861700E35368F88832B30E0E4193852A
:102E800027003355D541058915C1BA952380150111
:102E90003A96230016013306F70023001601A3011A
:102EA0000600938547000508AE87D9B7BA972380F7
:102EB00017013A9623000600FDB7130605FD937629
:102EC000F60FA54763E6D706B706002029159386B7
:102ED000060E0605369503430500060681470148A0
:102EE00036961D4E854893861700E35868F00832E1
:102EF000B30E0E41938527003355D541058915C181
:102F0000BA9523801501BA9623801601B306F700FF
:102F100023801601A3810600938547000508AE872C
:102F2000D9B7BA9723801701BA9623800600FDB758
:102F3000930700026316F50023100700894775BD4B
:102F40001305F5FD1375F50FF94763E0A73E9D677F
:102F5000938747C10A053E951C418287B707002029
:102F60009387070E83C8870403C3970401458147ED
:102F70001D4E054893861700E35115E9B305AE4091
:102F8000B355B340858913862700638A05303A9686
:102F900023000601BA9623800601B306F7002380BA
:102FA0000601A3810600138647000505B287D9B73D
:102FB000B70700209387070E83C8A70503C3B7058B
:102FC000014581471D4E054893861700E35715E3D9
:102FD000B305AE40B355B340858913862700638F90
:102FE00005323A9623000601BA9623800601B306FD
:102FF000F70023800601A38106001386470005051C
:10300000B287D9B7B70700209387070E83C8070593
:1030100003C31705014581471D4E054893861700D8
:10302000E35D15DDB305AE40B355B3408589138626
:1030300027006382052A3A9623000601BA96238068
:103040000601B306F70023800601A381060013865C
:1030500047000505B287D9B7B70700209387070E49
:1030600083C8270503C33705014581471D4E054821
:1030700093861700E35315D9B305AE40B355B3405B
:10308000858913862700638F05243A96230006015D
:10309000BA9623800601B306F70023800601A381B8
:1030A0000600138647000505B287D9B7B707002089
:1030B0009387070E83C8870503C39705014581479A
:1030C0001D4E054893861700E35915D3B305AE404E
:1030D000B355B340858913862700638A05223A9643
:1030E00023000601BA9623800601B306F700238069
:1030F0000601A3810600138647000505B287D9B7EC
:10310000B70700209387070E83C8C70403C3D704FB
:10311000014581471D4E054893861700E35F15CD95
:10312000B305AE40B355B340858913862700638647
:1031300005183A9623000601BA9623800601B306C5
:10314000F70023800601A3810600138647000505CA
:10315000B287D9B7B70700209387070E83C86705E2
:1031600003C37705014581471D4E05489386170027
:10317000E35515C9B305AE40B355B34085891386F1
:103180002700638F05163A9623000601BA9623801E
:103190000601B306F70023800601A381060013860B
:1031A00047000505B287D9B7B70700209387070EF8
:1031B00083C8E70403C3F704014581471D4E054852
:1031C00093861700E35B15C3B305AE40B355B34018
:1031D000858913862700EDC93A9623000601BA9621
:1031E00023800601B306F70023800601A3810600B1
:1031F000138647000505B287E1B7B707002093871C
:10320000070E83C8470503C35705014581471D4E77
:10321000054893861700E35215BFB305AE40B3557A
:10322000B340858913862700E9C53A962300060135
:10323000BA9623800601B306F70023800601A38116
:103240000600138647000505B287E1B7B7070020DF
:103250009387070E83C8A70403C3B70401458147BA
:103260001D4E054893861700E35915B9B305AE40C6
:10327000B355B3408589138627008DC93A9623003C
:103280000601BA9623800601B306F70023800601E3
:10329000A3810600138647000505B287E1B7BA97F8
:1032A00023800701BA962380060001B3BA972380D2
:1032B0000701BA9623800600C5B7BA972380070195
:1032C000BA962380060061B5BA9723800701BA96A3
:1032D0002380060005B7BA9723800701BA9623809A
:1032E000060085BBBA9723800701BA9623800600A3
:1032F0005DBBBA9723800701BA9623800600A1B769
:10330000BA9723800701BA962380060059BDBA9761
:1033100023800701BA9623800600C5B3BA9723809D
:103320000701BA9623800600D9B98147F9B4411143
:1033300085453705004022C626C44AC2EF00D01E8C
:1033400059C1854537050040EF00901F83C761894B
:1033500095C713878189183383A7C18A3DCB371757
:10336000002013078768BA978823EFF09FA583A7EB
:10337000C18A238B0188850723A6F18A1387818B55
:10338000144383A7C18B1389818B63F5F606B72796
:10339000002093878788B6979C23A9C3B714014060
:1033A0000546894513850480692383C7818999C7A8
:1033B000054693050020138504C0A52B832709002B
:1033C00085072320F9003244A244124941017300C9
:1033D0002030371700201307C74771B7B7140140D3
:1033E0000146894513850480A92383C78189F9D7BC
:1033F0000146C1B71384818923200700183083A7B1
:10340000C18A05C703A6418A63F6C7008547238B97
:10341000F18855BFB717002023A6018A23840768C7
:1034200023A2018AEFF09F9579BF03A7C189E3EF3B
:10343000E7FCCDBFB71702409843B706FFF0411134
:103440001367170098C3D84337060200758FD8C397
:103450009843B706F7FEFD16758F98C39843B706D5
:10346000FCFFFD16758F98C3D843B70601FFFD1604
:10347000758FD8C337079F0098C702C402C6984308
:10348000C166558F98C3B716024005679C42F18FFD
:103490003EC6A24785073EC4B24781E7A247E397ED
:1034A000E7FEB71702409C431397E70063570706F0
:1034B00085473EC632478547631FF704B71702406A
:1034C000D843B706C1FFFD16D8C3D843D8C3D843E5
:1034D00013670740D8C3D843758FD8C3D843B706FE
:1034E0002900558FD8C39843B7060001558F98C35C
:1034F000984393166700E3DD06FED843B7160240F3
:10350000719BD8C3D84313672700D8C32147DC4237
:10351000B18BE39EE7FE4101828002C661BFB71610
:103520000240DC421146B18B138741816385C7009D
:1035300021466388C702B7177A00938707201CC308
:10354000B7170240DC43918393F6F700B7070020DA
:103550009387C713B69794231C43B3D7D7001CC3D4
:103560008280DC42D4424166C983BD8BF18E8907DB
:1035700045466393C700C94781EEB746024083A61C
:103580000680C18A89CEB7167A009386062021A8C4
:10359000B7160240D4421396E600E35606FEB7166D
:1035A0003D0093860690B387D70251BF01A097D103
:1035B000FF1F93812141172100201301A1A417357A
:1035C00000001305E57697D5FF1F9385A5A3138605
:1035D000018963FAC5008322050023A05500110567
:1035E0009105E3EAC5FE1385018997E5FF1F9385E1
:1035F000E52B6377B500232005001105E36DB5FECB
:10360000FD42739002BC8D42739042809302800809
:103610007390023097D2FFFF9382029F93E23200B1
:1036200073905230EFF01FE197F2FFFF9382423A1E
:103630007390123473002030B7F7FF1F03A5477053
:103640008280B707674537270240938737125CC3EC
:10365000B797EFCD9387B79A5CC382803727024034
:103660001C4B93E707081CCB8280B7270240C8C7D2
:103670008280372702405C470545858B91E74847A4
:103680004189133515000D058280EFC27FAA2A8477
:103690008544EFF01FFE6319950019E0154531A030
:1036A000EFF03FFD7D14C5BF75D86FC0BFAAEFC254
:1036B0003FA8AA8437050B00EFF03FFD9147631444
:1036C000F502372402401C4837050B0093E727001A
:1036D0001CC844C81C4893E707041CC8EFF0FFFA55
:1036E0001C48F59B1CC86FC0FFA6EFC2DFA24111AA
:1036F0002A891565AE8402C69149EFF01FF9631D52
:103700003503372402401C48156593E717001CC891
:1037100093970401C1832310F900EFF01FF7631A98
:10372000350109094AC6B247C180156586A3EFF085
:10373000DFF51C48F99B1CC841016FC01FA1B707EA
:1037400000F8AA973787030063FFE70A3307C5002D
:10375000B78603089307D00F63E5E60A3367C50011
:103760001377F70F9307E00F49EF41CEB706674590
:10377000B7270240938636123797EFCDD4C313078D
:10378000B79AD8C3D4D3C1762182D8D3898DC168E2
:1037900013030010370E2000FD16984BB38EA500C2
:1037A0003367170198CBD847058B75FFD847098B2E
:1037B00075FF3388EE00032F08003308E50023204F
:1037C000E80103A8C70013782800E31C08FE1107CE
:1037D000E31167FE984B130505103367C70198CBBB
:1037E000D847058B75FF984B7D16758F98CB55F68E
:1037F000984BA166558F98CB984B1367070898CBC9
:1038000091473E8582809307F00FE5BF9C4513F7F3
:10381000070113F8F70001C7D8413368E8003727DC
:103820000240145B3707000F758F4DEB85462380F0
:10383000D18C371701406315E5009A2135839AA191
:103840008E2113F7F50F39C318418146854E3D4F40
:10385000930F800293028004214E3396DE00B3F86A
:10386000C500631116039398260033131F011343F9
:10387000F3FF3377E300B318180133E7E8006397E9
:10388000F70750C98506E39AC6FD18C11307F00F64
:103890006375B70454412146854E3D4F930F800216
:1038A00093028004414EB398CE0033F71501639222
:1038B000E8021317260001173313EF001343F3FF39
:1038C000B376D3003317E800D98E6395F703232A24
:1038D00015010506E319C6FD54C182803717014062
:1038E000E310E5F603C7018C21DF81BFE39C57F8A5
:1038F00010C949BFE39F57FC23281501D9BFB7174B
:1039000001406316F50083C7018C91C3B58108455A
:103910006D8D3335A0008280B71701406316F50026
:1039200083C7018C91C3B58148456D8D3335A000A7
:103930008280B71701406316F50083C7018C91C3DD
:10394000B58119C20CC982804CC98280EFC24FFE7A
:10395000797146212A8468082EC60D24925737476C
:103960000F001307072433D7E702C204C18093F482
:1039700004FCC204B7869303C1809386F66FB245F8
:1039800042074183D98C63F4F6001307C00346A0B5
:10399000162061661306066AC206C182F99AC2063B
:1039A000C18216A094416369D6048606B3D7D702B4
:1039B000114693960701C182B68763F3C60091470B
:1039C000C207C1830507420741831AB05EAC1E20BF
:1039D000DA21B62593E717001EA01E20558FC207D7
:1039E000C18393F757BFD98F1EA09A25DE25D98FA3
:1039F0001EA445616FC00FF6EA2131667D1663197A
:103A0000C5020D46B386C602B3D7D702C207C1832B
:103A10009396470199E293E71700A166D58F930625
:103A2000C0123307D7029306803E3347D70259BFEF
:103A30006546B386C602B3D7D7029166C207C18373
:103A4000D58FF9B71E2189C593E717001EA1828083
:103A5000C207C183F99BC207C183CDBF1E2189C59F
:103A600093E707101EA18280C207C18393F7F7EF87
:103A7000C207C183C5BF1E2189C593E707201EA1C8
:103A80008280C207C18393F7F7DFC207C183C5BF36
:103A90001E2189C593E707401EA18280C207C1830A
:103AA00093F7F7BFC207C183C5BF0EA9828093F702
:103AB000E50F19C293E71500C207C1831EA98280D2
:103AC0005E290A2D42055D8D6D8D220521810D8DAA
:103AD000133515008280411102C402C693D7C50177
:103AE0002AC63EC4A247A205A18199CBB247D107FD
:103AF0003EC6B247884341016D8D3335A0008280B8
:103B0000B247C181E107EDB723A2A18C828003A750
:103B1000418C854714216310F7021C31639CE70236
:103B20003C21960793E707F837E700E093F7F70F94
:103B300036972300F740054793D756003317D70031
:103B4000544189CE938707048A07B7E600E0B69709
:103B500098C38280EDF33C219607F9B79387070657
:103B6000E5B7B7170240D843B70640FFFD16758F7B
:103B7000D8C3D8435A05598DC8C38280371702402D
:103B80005C439146B18B6385D700A1466382D7061B
:103B9000B7177A00938707201CC1371602405C4292
:103BA000370700201307C7149183BD8BBA9794235E
:103BB0001C41B3D7D7005CC15442A1829D8ABA96FA
:103BC0009422B3D6D70014C55442AD829D8A36974D
:103BD0001823B3D7E7005CC5584239839376370082
:103BE0001387818136971823B3D7E7021CC98280D7
:103BF0005C435843C166C983BD8B758F8907C54631
:103C00006393D700C94701EF374702400327078076
:103C1000418B09CF37177A001307072021A83717E0
:103C2000024058439316E700E3D606FE37173D00DF
:103C300013070790B387E70285B799C53717024086
:103C40005C4B5D8D48CB8280B7170240D84B134543
:103C5000F5FF798DC8CB828099C5371702401C4F7C
:103C60005D8D08CF8280B7170240984F1345F5FF4E
:103C7000798D88CF828099C5371702405C4F5D8D62
:103C800048CF8280B7170240D84F1345F5FF798D92
:103C9000C8CF82801E2137370140130707C0C207F3
:103CA000C1836304E502370700406300E5021307A0
:103CB0000740630CE5003717004093060780630652
:103CC000D500130707C06316E500BA2193F7F7F88C
:103CD000D98FFA2193F7F7CFC207C183D98F1EA1DD
:103CE000DE215EB59E211EB5B7370140938707C020
:103CF0006314F5009C251EB985475EA982801E21AC
:103D000089C593E717001EA18280C207C183F99B72
:103D1000C207C183CDBF5E2501C6DD8D4EA5828061
:103D200093C5F5FFFD8DDDBF1E294A25ED8F4205A8
:103D3000418189C76D8D3335A00082800145828025
:103D400093C5F5FFC205C1810EA98280EFC24FBEA7
:103D50001629F577FD17F58FF621DA257971D58FBC
:103D60001EA95625FD779387379FF58FD6212A8484
:103D70002EC6D58F9625D58FB625D58F5EA55E2903
:103D8000C207C18393F7F7CFD98F5EA96808EFF018
:103D9000FFDEB747014093870780B245631EF402F8
:103DA000A2576547B387E7029841930640060A0782
:103DB000B3D7E70233D7D702B3F7D7021207920778
:103DC00093872703B3D7D702BD8BD98FC207C1838F
:103DD0001EA445616FC00FB89257E1B791C55E252B
:103DE0000967D98F5EA582805A25F977FD17F98F6B
:103DF000D5BF93F5F51F4EA182800A216D8D333515
:103E0000A000828083A7418137177A00130707201B
:103E1000B3D7E70293F7F70F2385F18C1307803EA2
:103E2000B387E7022394F18C8280B7F700E0D84390
:103E30008146799BD8C303C7A18C3306A70290CBD8
:103E4000D4CB98431367070198C3984313671702AD
:103E500098C3D843058B75DF9843799B98C38280BC
:103E6000B7F700E0D8438146799BD8C303D7818C4C
:103E70003306A70290CBD4CB98431367070198C3AE
:103E800098431367170298C3D843058B75DF98438F
:103E9000799B98C38280EFC2AFA92A841165011172
:103EA00085451105EFF05FDB930700207C82371515
:103EB00001408D473EC44C00E147130505803EC6D6
:103EC000EFF0DF9422C837440140B70708000C0820
:103ED000130504803ECC02CA231E0100EFF01FE749
:103EE000854513050480EFF07FEF05616FC08FA655
:103EF000EFC26FA2B7440140AE8932890144938476
:103F00000480634524014A856FC02FA493050004F3
:103F10002685EFF09FEE7DD9B38789008385070062
:103F200026850504C205C181EFF0BFECD9BF138718
:103F3000C1811C43B72600209386868A3E95636B19
:103F4000D500B75600209386068063E5A60008C317
:103F50003E858280FD57EDBF93F5F50F2A966314D9
:103F6000C500014582801C21E38EB7FE0505C5BF53
:103F7000B3C7A5008D8B3307C50081E78D4763ED7F
:103F8000C700AA87637EE508942185078505A38F6E
:103F9000D7FEE3EBE7FE828093763500AA8789CAD5
:103FA000942185078505A38FD7FE93F63700C5BFFB
:103FB0009376C7FF138606FE63F0C70683A305004A
:103FC00083A2450083AF850003AFC50083AE050122
:103FD00003AE450103A3850183A8C501938545026E
:103FE00023A0770003A8C5FF23A2570023A4F7014D
:103FF00023A6E70123A8D70123AAC70123AC6700A2
:1040000023AE17019387470223AE07FF75B7904190
:104010009107910523AEC7FEE3EBD7FEE3E6E7F693
:10402000828039713EDA2ED232D436D63AD842DC8A
:1040300046DE9387018222CC804326CA06CEAA841C
:1040400009C41C4C99E322859D230C4454102686F8
:10405000228536C6EF00504FF2406244D2442161BF
:104060008280011126CA4AC806CE22CC4EC652C44E
:10407000AA842E8901C51C4D91E3152B9C4C8044CC
:1040800099E326852D23973700009387A7C2631BEA
:10409000F402C0405E24A18BB1C71C48A1C7FD59E2
:1040A000294A1C4483450900FD17B1E91CC463DD9E
:1040B00007062286A9452685CD28FD576308F50207
:1040C000294535A0973700009387C7C06314F400D3
:1040D0008044C9B7973700009387C7BBE31CF4FA45
:1040E000C0444DBFA2852685BD2A55D97D55F240D5
:1040F0006244D2444249B249224A056182801CC4CA
:10410000050963D70700184C63CAE70063884501B7
:104110001C401387170018C08CA361B72286268520
:104120006920E31035F9D9B71C401387170018C070
:10413000294798A371B793870182AA8588436FF0B6
:104140005FF235713ECBB707008093C7F7FF3ECED5
:104150003EC8C1779387872032C536C73AC942CD5A
:1041600046CF3ECA938701822AC42ACC88433401B1
:104170002E862C0086DE36C2EF00D00FA2472380A9
:104180000700F6500D618280AA8798218507850572
:10419000A38FE7FE7DFB8280AA87850703C7F7FF11
:1041A0006DFF3385A7407D158280011122CC26CA80
:1041B0004AC806CE4EC6AA842E89328401C51C4D3B
:1041C00091E3F526973700009387C7AE6317F4068F
:1041D000C0401C4C1CC45E24A18BC1C31C48B5CF7D
:1041E0001C4808409379F90F1379F90F1D8D5C482D
:1041F0006346F500A2852685692C25E51C44050546
:10420000FD171CC41C401387170018C023803701FA
:104210005C486388A7005E24858B81CBA947631621
:10422000F900A2852685B5240DEDF24062444A8549
:10423000D2444249B2490561828097370000938792
:1042400067A96314F400804469B797370000938727
:1042500067A4E310F4F8C044ADBFA28526852120F1
:1042600041D17D59D9B741119387018226C2844338
:1042700022C44AC006C62A892E8489C49C4C99E36C
:1042800026853526973700009387C7A2631BF40263
:10429000C0400317C40093170701C18393F687003A
:1042A000ADEA93F6070195EEA5472320F9001367C1
:1042B00007045AA47D55B240224492440249410168
:1042C0008280973700009387E7A06314F40080444E
:1042D000C9B7973700009387E79BE31CF4FAC04403
:1042E0004DBF918B9DC34C5889C993074404638487
:1042F000F5004A85292B232A04025E242322040088
:1043000093F7B7FD5EA41C481CC05E2493E78700AA
:104310005EA41C4899EB5E241307002093F707283E
:104320006385E700A2854A8591295E2413F717006B
:104330001DC35C4823240400B307F0401CCC1C4878
:104340000145B5FB8317C40013F707082DD793E782
:1043500007045EA485B7898B014791E3584818C4C8
:10436000F9BFDE25011122CC26CA06CE4AC84EC6A8
:1043700013F78700AA842E8479EBD841634DE000BF
:10438000B841634AE0000145F2406244D2444249E8
:10439000B2490561828058547DD703A904009396E1
:1043A000370123A0040063DB060670485E24918B6E
:1043B00099C75C401D8E5C5899C33C401D8E5C546F
:1043C0000C50814626858297FD575A24631DF500BF
:1043D0009440F54763E8D706B70740208507B3D771
:1043E000D700858BA5C31C48232204001CC093174B
:1043F000370163D80700FD576314F5009C4091E333
:1044000068C84C5823A02401BDDD9307440463848D
:10441000F5002685ED2E232A0402B5B70C5001467F
:10442000854626850297FD572A86E311F5F89C40BC
:10443000B5DF75476385E70059476393E70423A019
:10444000240191B7136707045AA47D5535BF83A98A
:104450000501E38A09F203A905008D8B23A035012C
:1044600033093941014791E3D84918C4E35D20F18C
:104470001C540C50CA864E86268582976347A0003E
:104480005E2493E707045EA4C9B7AA993309A9403B
:10449000F1BF9C49A5C3011122CC06CE2A8411C5C7
:1044A0001C4D81E72EC62122B24597370000938725
:1044B0006780639CF5004C408397C5009DC72285AB
:1044C0006244F24005616FF0DFE99737000093879F
:1044D00067806394F5000C44C5B797270000938765
:1044E000677BE39BF5FC4C44C1BFF240624401454D
:1044F0000561828001458280411122C406C62A845A
:104500004EA572A5232005002322050023240500C3
:104510002322050623280500232A0500232C050055
:10452000214681451305C505EFB09FC397170000CD
:104530009387C7E85CD0971700009387E7EA1CD4FD
:10454000971700009387C7EE5CD4971700009387F6
:1045500027F100D01CD8B240224441018280970547
:104560000000938545F391AA411126C213068006E7
:104570009384F5FFB384C4024AC02E8922C406C6C0
:10458000938544070D2E2A8401CD23200500232284
:104590002501310508C4138684068145EFB05FBC50
:1045A0002285B240224492440249410182801C4D3E
:1045B000A5E7411106C622C497070000938767FA52
:1045C0001CD59387C1889C43232405042326050416
:1045D000232805046314F50085471CCD2A8435285B
:1045E00048C022851D2808C42285052848C44840A3
:1045F00001469145EFF05FF008440546A545EFF010
:10460000BFEF48440946C945EFF01FEF85471CCC72
:10461000B240224441018280828041119387C18847
:1046200026C284434AC006C69C4C22C42A8981E71C
:104630002685EFF0DFF7938484048044DC40FD1787
:1046400063D607009C40B9CF8440C5BF0317C400A0
:1046500039E7C1778507232204062320040023229B
:104660000400232404005CC423280400232A04003B
:10467000232C0400214681451305C405EFB05FAE2D
:10468000232A0402232C04022324040423260404E2
:104690002285B2402244924402494101828013049F
:1046A000840671BF91454A85EFF01FEC88C049FD33
:1046B000B1472320F9000144E1BF797122D44AD0E7
:1046C00052CC56CA5AC85EC606D626D24ECE2A8AC2
:1046D000AE8A130485040149054BFD5B09ECB25019
:1046E00022544A8592540259F249624AD24A424BB4
:1046F000B24B45618280044483294400FD1963D490
:1047000009000040E1BFDE24637BFB008397E400E7
:1047100063877701A6855285829A3369A9009384BD
:104720008406E9BF1971A6DAAE848395E500A2DCA0
:1047300086DE328463DB0500DE2423A0060093F7C7
:10474000070885E7930700401DA0300836C6EF0034
:10475000B057B246E34205FE7247BD67F98F7977DD
:10476000BA9793B717009CC2F1BF930700041CC00F
:10477000F6506654D654014509618280DE25011148
:1047800022CC06CE26CA4AC8898B2E8489CF9307AD
:1047900074041CC01CC885475CC8F2406244D24403
:1047A00042490561828074003000AA84EFF09FF7CF
:1047B000A2452A892685012219E98317C40013F727
:1047C000072061FFF19B93E727005EA4C9B7970715
:1047D0000000938707D99CD45E2408C008C893E7DB
:1047E00007085EA4A2475CC8B24781CF8315E400E6
:1047F0002685EF00905011C55E24F19B93E71700CA
:104800005EA45E243369F9002316240179B7DDC163
:1048100083A7C5FF411122C406C626C21384C5FF63
:1048200063D307003E94AA84EF00D0579387C18CCE
:104830009C4381EF2322040023A6818C2244B240B2
:104840002685924441016F001056637EF4001440A7
:104850003307D4006396E7009843DC43369718C0CB
:104860005CC0D9BFBA87D84319C3E37DE4FE944343
:104870003386D700631F86001040B29694C33386F8
:10488000D700E31DC7FA10435843B29694C3D8C368
:1048900075B76375C400B1479CC04DB71040B306EF
:1048A000C4006316D70014435843B29614C058C0CE
:1048B000C0C369B78280011126CA93843500F1987C
:1048C00006CE22CC4AC84EC6A104B14763F5F40413
:1048D000B14463E4B4042A89EF00D04C9387C18CBF
:1048E00098433A8429E49387018D9C4399E7814555
:1048F0004A85EF00502923A8A18CA6854A85EF00A0
:104900009028FD5963193507B1472320F9004A85DE
:10491000EF00704929A0E3DE04FAB1471CC101454C
:10492000F2406244D2444249B249056182801C404F
:10493000858F63CF0702AD4663F6F6001CC03E9438
:1049400004C031A05C406313870223A6F18C4A8522
:10495000EF0070451305B4009307440061993307D5
:10496000F5405DDF3A94898F1CC05DBF5CC3C5B75D
:104970002287404085BF130435007198E30285FC0F
:10498000B305A4404A85EF001020E31B35FBADBF03
:1049900001114AC803A9850022CC52C45AC006CED0
:1049A00026CA4EC656C22E84328B368A63E9260941
:1049B000DE2513F7074851C304408C495848AA8A9A
:1049C000B389B4408D44B384E4020947B3C4E4021C
:1049D000138716004E9763F3E400BA8493F70740F9
:1049E000BDCFA6855685EFF01FED2A891DE1B147A1
:1049F00023A0FA005E247D5593E707045EA4F240ED
:104A00006244D2444249B249224A924A024B056169
:104A100082800C484E86EFF0AFD55E2493F7F7B74F
:104A200093E707085EA42328240144C84E99B38461
:104A300034412320240104C4528963732A0152891A
:104A400008404A86DA85EF0090311C440145B3875F
:104A500027411CC41C403E99232024014DB72686C3
:104A60005685EF0070342A895DFD0C485685EFF0BD
:104A70001FDAB5BFDE25717126D34AD14ECF06D7D6
:104A800022D552CD56CB5AC95EC762C566C393F7CD
:104A90000708AA892E89B284B9C39C49A9E3930562
:104AA000000436C6EFF03FE12320A9002328A90027
:104AB000B24615E1B14723A0F9007D55BA502A54FA
:104AC0009A540A59FA496A4ADA4A4A4BBA4B2A4C6A
:104AD0009A4C4D61828093070004232AF9009307C2
:104AE0000002A30CF1029307000302DA230DF10286
:104AF00036CE930B5002972A0000938AAA1F054CCA
:104B0000294B26841C2099C363997709B30C9440E0
:104B1000638E0C00E6862686CA854E85EFF05FE739
:104B2000FD57630BF518D256E69636DA1C206385DE
:104B30000718FD579304140002D002D63ED202D4C7
:104B4000A301010682DC8C2015465685EFF0CFC00C
:104B500013841400825721E513F7070109C71307CF
:104B60000002A301E10613F7870009C71307B0028B
:104B7000A301E10694201307A002638AE602B2575C
:104B8000268481462546182093051400130707FD47
:104B90006372E6068DC63ED61DA00504A5B7330593
:104BA00055413315AC00C98F3ED0A28469BF72470E
:104BB00093064700184336CE634707023AD61820BB
:104BC0009307E002631DF70418309307A002631BEC
:104BD000F702F2470904138747009C433ACE63C1AA
:104BE00007023ED22DA83307E04093E727003AD6CC
:104BF0003ED0F1B7B387670385462E84BA9761B775
:104C0000FD57C5B7050402D28146814725461820C5
:104C100093051400130707FD6376E606F9F20C20EE
:104C20000D46172500001305650DEFF0EFB211CD0D
:104C3000972700009387870C1D8D93070004B39777
:104C4000A700025505045D8D2AD00C2019461725B2
:104C500000001305E50A93041400230CB102EFF0E1
:104C6000AFAF25C597B7FFFF9387C73995E70257C1
:104C7000F2471377071009CF91073ECED257D2974C
:104C80003EDA41B5B387670385462E84BA9741B7AC
:104C90009D07E19BA107D5B778089706000093868A
:104CA00066CF4A860C104E8597000000E700000092
:104CB000FD572A8AE314F5FC8357C9007D5593F705
:104CC0000704E39D07DE5255D5BB78089706000020
:104CD000938646CC4A860C104E852121D1BF1C46B6
:104CE000FD171CC663DA0700184E63C5E700A94725
:104CF0006394F5006FF06FCB1C422E85138717006D
:104D000018C28CA38280011122CC26CA4AC84EC682
:104D100052C406CE2A89AE893284B304D6007D5AA5
:104D200063149400014509A80C204E864A85EFF0D3
:104D30001FFB0504E31645FFF2406244D24442499A
:104D4000B249224A05618280357122CD26CB4AC9FB
:104D50004EC706CF52C556C35AC1DEDEE2DCE6DAE4
:104D6000AA89AE843289368409C51C4D99E3EFF0D7
:104D70001F84972700009387E7F36399F40C83A4BB
:104D80004900DE24A18BEDC79C48FDC393070002B8
:104D9000A304F1029307000302D22305F10222C605
:104DA000930B5002972A0000938ACAF4054C294BB2
:104DB0004A841C2099C36390770FB30C2441638EFF
:104DC0000C00E6864A86A6854E85EFF0DFF3FD5798
:104DD0006302F51E9256E69636D21C20638C071CA1
:104DE000FD571309140002C802CE3ECA02CCA30923
:104DF000010482D48345090015465685EFF0CF950E
:104E000013041900C24751E913F7070109C7130733
:104E10000002A309E10413F7870009C71307B002D2
:104E2000A309E104834609001307A002638FE60685
:104E3000F2474A848146254618209305140013073B
:104E400007FD6377E60AB5CA3ECE85A8972700001E
:104E5000938747E86395F40083A489001DB79727DB
:104E60000000938727E3E39EF4F083A4C90011BFF9
:104E7000A6854E85EFF02FBF11D97D55FA406A44C3
:104E8000DA444A49BA492A4A9A4A0A4BF65B665CAE
:104E9000D65C0D618280050429BF33055541331569
:104EA000AC00C98F3EC82289B1B73247930647008C
:104EB000184336C6634707023ACE18209307E0022C
:104EC000631DF70418309307A002631BF702B24773
:104ED0000904138747009C433AC663C107023ECAD0
:104EE0002DA83307E04093E727003ACE3EC8F1B73C
:104EF000B387670385462E84BA973DBFFD57C5B774
:104F0000050402CA814681472546182093051400EE
:104F1000130707FD6376E606F9F20C200D46172508
:104F200000001305A5DDEFF02F8311CD97270000BA
:104F30009387C7DC1D8D93070004B397A7004245F4
:104F400005045D8D2AC80C2019461725000013059D
:104F500025DB130914002304B102EFE0FFFF35C184
:104F600097B7FFFF9387070A95E74247B247137742
:104F7000071009CF91073EC69257D2973ED20DBD7A
:104F8000B387670385462E84BA9741B79D07E19B97
:104F9000A107D5B7780097060000938606D7268626
:104FA0000C084E8597000000E7000000FD572A8A94
:104FB000E314F5FCDE2493F70704E39007EC1255A5
:104FC00075BD780097060000938626D426860C08C7
:104FD0004E85012AE1BF797156CA9C49BA8A984523
:104FE00022D426D24ECE52CC06D64AD05AC85EC65D
:104FF000AA892E84B284368A63D3E700BA879CC01C
:105000000347340419C385079CC01C4093F707026B
:1050100081C79C4089079CC003290400137969005B
:10502000631A0900130B9401FD5B5C449840998F4F
:10503000634CF9041C408346340493F70702B336EB
:10504000D000A5EB13063404D2854E85829AFD5715
:105050006303F5041C4011469840998B54448144E5
:105060006397C700B384E64063D3040081441C44C3
:1050700018486354F700998FBE94014969047D5B19
:1050800063982405014509A885465A86D2854E8530
:10509000829A631E75017D55B25022549254025972
:1050A000F249624AD24A424BB24B456182800509BD
:1050B000ADBF3307D40013060003A301C7040347A1
:1050C000540493871600A2978906A381E7049DBF25
:1050D00085462286D2854E85829AE30E65FB0509B8
:1050E00045B7797122D426D24AD04ECE06D652CCBC
:1050F00056CA5AC8B689942D930790063289AA8455
:105100002E8413863504638DF60263E2D706930777
:1051100080056387F61863EDD700638F0620930739
:105120003004638FF60A930A24042301D404D1A027
:10513000930730066386F60A93074006E395F6FE6A
:105140001C40084393F6070893054500CDC61C4153
:105150000CC363D807001307D002B307F040A301C4
:10516000E40497260000938626BA29476DA8930782
:1051700000076383F61663E5D7029307E006638AA8
:10518000F6189307F006E390F6FA0C401C4313F868
:105190000508138547006308080608C39C438DA8CB
:1051A00093075007E383F6FE93078007638AF6129E
:1051B00093073007E399F6F61C43D0418145938667
:1051C000470014C383AA07005685EFE0FFD801C546
:1051D0003305554148C05C401CC8A301040461A8C4
:1051E0001C43930A2404938647009C4314C3230161
:1051F000F4048547D5B793F607041C410CC3B1DA14
:10520000C207C187B9B793F5050408C3C1D99E2366
:105210001307F0066387E60E972600009386C6AE56
:105220002947A30104044C400CC463C50500084091
:105230006D9908C099E3B28A89CDB28AB3F5E702C5
:10524000FD1AB6958C212380BA00B3D5E70263F02E
:10525000E70CA147631EF7001C40858B91CB58409B
:105260001C4863C7E70093070003A38FFAFEFD1AEB
:105270003306564110C84E87CA867000A28526851F
:10528000EFF07FD57D5A631D450B7D55B2502254FA
:1052900092540259F249624AD24A424B4561828095
:1052A000A382D50497260000938606A60C400843E7
:1052B00013F805081C411105630D080208C313F714
:1052C000150001C793E505020CC04147B9FB0C402E
:1052D00093F5F5FD0CC0B1B79C4193E707029CC163
:1052E00093078007A302F40497260000938606A381
:1052F00075BF13F8050408C3E30308FCC207C183A4
:105300007DBF97260000938626A0214719BFAE8750
:1053100035B794411C43CC4913F806081385470060
:105320006306080008C39C438CC339A008C393F6E6
:1053300006049C43F5DA8EA323280400B28A25BF15
:1053400014485686CA8526858299E30045F51C4097
:10535000898B8DE7B2474844E35AF5F23E853DB765
:1053600085465686CA8526858299E30065F3050A37
:105370005C443247998FE345FAFEE9BF014A930A3C
:1053800094017D5BF5B7411122C42A842E8597C70D
:10539000FF1F23AB075006C6EFE07FB9FD57631927
:1053A000F50097C7FF1F938727509C4391C31CC0EC
:1053B000B240224441018280411122C42E8483954F
:1053C000E50006C6352C634905007C48AA977CC8D1
:1053D000B2402244410182805E247D777D17F98F9F
:1053E0005EA4FDB7DE25011122CC26CA4AC84EC6EE
:1053F00006CE93F70710AA842E843289B68991C706
:105400008395E500894601460D225E247D777D1750
:10541000F98F5EA48315E4006244F240CE864A868A
:10542000B24942492685D244056125A8411122C4CA
:105430002E848395E50006C6CD28FD575A24631AAD
:10544000F500FD77FD17F98F5EA4B24022444101BB
:1054500082808567D98F5EA468C8C5BF8395E50043
:1054600025A8411122C42A842E85B285368697C785
:10547000FF1F23AB074206C6EFE09FA7FD57631946
:10548000F50097C7FF1F938727429C4391C31CC019
:10549000B240224441018280411122C42A842E85D7
:1054A00097C7FF1F23A2074006C6792AFD57631935
:1054B000F50097C7FF1F9387273F9C4391C31CC0EC
:1054C000B240224441018280411122C42A842E85A7
:1054D000B28597C7FF1F23A9073C06C6B52AFD570B
:1054E0006319F50097C7FF1F9387073C9C4391C33F
:1054F0001CC0B240224441018280411122C42A844E
:105500002E8597C7FF1F23A1073A06C6B12AFD576C
:105510006319F50097C7FF1F938707399C4391C311
:105520001CC0B240224441018280411122C42A841D
:105530002E85B285368697C7FF1F23A7073606C676
:10554000252AFD576319F50097C7FF1F9387C735B5
:105550009C4391C31CC0B24022444101828063F14C
:10556000A504B386C500637DD5029345F6FF814748
:10557000FD176393F50082803387F6000348070028
:105580003387C7002A9723000701DDB73387F5006B
:1055900014233307F500850714A3E319F6FE828070
:1055A0008147E5BF8280828081E5B2856FF0AFB030
:1055B000011122CC06CE26CA4AC84EC6328401EE5C
:1055C000EFF0EFA40149F24062444A85D2444249D7
:1055D000B24905618280AE84AA89A9282689E3742C
:1055E00085FEA2854E85EFF00FAD2A8969DDA6857F
:1055F0002286EFE0FF97A6854E85EFF04FA1E1B739
:10560000411122C42A842E85B285368697C7FF1F92
:1056100023AC072806C68D28FD576319F50097C7E8
:10562000FF1F938767289C4391C31CC0B24022444C
:105630004101828083A7C5FF1385C7FF63D507009B
:10564000AA959C413E9582809307800517C7FF1F4E
:10565000232CF7247D5582809307800517C7FF1FF1
:105660002324F7247D5582809307800517C7FF1FE9
:10567000232CF722014582809307800517C7FF1F5F
:105680002324F7227D5582809307800517C7FF1FCB
:10569000232CF7207D5582800000000000000000D0
:1056A00000000000000000000000000000000000FA
:1056B0000000000000000000000000000000000CDE
:1056C000000C000C000C000C000C000C000C000C7A
:1056D000000C000C0000000C000C0000000000009A
:1056E0000000001B001B001B001B001B0000000033
:1056F00000000000000000000000000000000000AA
:105700000000000000008019801980198019C07FF6
:10571000C07F80190033C07FC07F00330033003367
:1057200000330000000000000000001E003F8075F4
:1057300080650074003C001E000780058065806560
:105740008075003F001E000400040000000000708F
:1057500000D840D8C0D880D900730006000C801B48
:10576000C036C066C046C0068003000000000000CE
:105770000000001E003F003300330033001E000C09
:10578000C03CC066806380618063C03E801C0000B6
:10579000000000000000000C000C000C000C000CCD
:1057A00000000000000000000000000000000000F9
:1057B000000000000000000080000001000300065F
:1057C00000060004000C000C000C000C000C000C87
:1057D0000004000600060003000180000020001005
:1057E0000018000C000C000400060006000600066D
:1057F000000600060004000C000C00180010002039
:105800000000000C002D003F001E003300000000CF
:105810000000000000000000000000000000000088
:1058200000000000000000000000000C000C000C54
:10583000000CC0FFC0FF000C000C000C000C0000AE
:105840000000000000000000000000000000000058
:105850000000000000000000000000000000000048
:105860000000000C000C0004000400080000000010
:105870000000000000000000000000000000001E0A
:10588000001E0000000000000000000000000000FA
:105890000000000000000000000000000000000008
:1058A00000000000000000000000000C000C0000E0
:1058B00000000000000000030003000300060006D3
:1058C00000060006000C000C000C000C001800186C
:1058D00000180000000000000000001E003F003320
:1058E000806180618061806D806D80618061806198
:1058F0000033003F001E0000000000000000000612
:10590000000E001E003600260006000600060006F7
:105910000006000600060006000600000000000069
:105920000000001E003F80738061806180010003E1
:105930000006000C001800300060807F807F0000AF
:10594000000000000000001C003E00630063000334
:10595000000E000E00038001800180618073003F13
:10596000001E00000000000000000006000E000EF7
:10597000001E001E0016003600360066807F807F05
:105980000006000600060000000000000000007F86
:10599000007F006000600060006E007F8063800117
:1059A000800180618073003F001E00000000000045
:1059B0000000001E003F803380610060006E007FA9
:1059C00080738061806180618033003F001E000031
:1059D000000000000000807F807F80010003000342
:1059E00000060006000C000C000C0008001800184F
:1059F00000180000000000000000001E003F80634F
:105A0000806180610021001E003F806180618061B3
:105A10008061003F001E0000000000000000001E2A
:105A2000003F00738061806180618073803F801DD2
:105A3000800180610073003F001E00000000000034
:105A400000000000000000000000000C000C00003E
:105A500000000000000000000000000C000C00002E
:105A60000000000000000000000000000000000036
:105A7000000C000C00000000000000000000000C02
:105A8000000C0004000400080000000000000000FA
:105A900080008003000E003800600038000E800394
:105AA0008000000000000000000000000000000076
:105AB000000000000000807F807F00000000807FE9
:105AC000807F0000000000000000000000000000D7
:105AD000000000000000000000400070001C0007F3
